{
  "contractName": "Crowdfunding",
  "abi": [
    {
      "inputs": [],
      "stateMutability": "nonpayable",
      "type": "constructor"
    },
    {
      "anonymous": false,
      "inputs": [
        {
          "indexed": false,
          "internalType": "uint256",
          "name": "projectID",
          "type": "uint256"
        },
        {
          "indexed": false,
          "internalType": "address",
          "name": "contributor",
          "type": "address"
        },
        {
          "indexed": false,
          "internalType": "uint256",
          "name": "amount",
          "type": "uint256"
        },
        {
          "indexed": false,
          "internalType": "uint256",
          "name": "currentBalance",
          "type": "uint256"
        }
      ],
      "name": "fundReceived",
      "type": "event"
    },
    {
      "anonymous": false,
      "inputs": [
        {
          "indexed": false,
          "internalType": "uint256",
          "name": "projectID",
          "type": "uint256"
        },
        {
          "indexed": false,
          "internalType": "address",
          "name": "owner",
          "type": "address"
        },
        {
          "indexed": false,
          "internalType": "uint256",
          "name": "receivedAmount",
          "type": "uint256"
        }
      ],
      "name": "ownerPaid",
      "type": "event"
    },
    {
      "inputs": [
        {
          "internalType": "string",
          "name": "_title",
          "type": "string"
        },
        {
          "internalType": "string",
          "name": "_description",
          "type": "string"
        },
        {
          "internalType": "uint256",
          "name": "_targetAmount",
          "type": "uint256"
        },
        {
          "internalType": "uint256",
          "name": "_deadlineInDays",
          "type": "uint256"
        }
      ],
      "name": "createProject",
      "outputs": [
        {
          "internalType": "uint256",
          "name": "projectID",
          "type": "uint256"
        }
      ],
      "stateMutability": "nonpayable",
      "type": "function"
    },
    {
      "inputs": [
        {
          "internalType": "address",
          "name": "projectOwner",
          "type": "address"
        }
      ],
      "name": "getOwnerProjects",
      "outputs": [
        {
          "internalType": "uint256[]",
          "name": "",
          "type": "uint256[]"
        }
      ],
      "stateMutability": "view",
      "type": "function",
      "constant": true
    },
    {
      "inputs": [
        {
          "internalType": "uint256",
          "name": "projectID",
          "type": "uint256"
        }
      ],
      "name": "getProject",
      "outputs": [
        {
          "internalType": "uint256",
          "name": "_projectID",
          "type": "uint256"
        },
        {
          "internalType": "string",
          "name": "title",
          "type": "string"
        },
        {
          "internalType": "string",
          "name": "description",
          "type": "string"
        },
        {
          "internalType": "uint256",
          "name": "targetAmount",
          "type": "uint256"
        },
        {
          "internalType": "uint256",
          "name": "receivedAmount",
          "type": "uint256"
        },
        {
          "internalType": "uint256",
          "name": "deadlineInDays",
          "type": "uint256"
        },
        {
          "internalType": "uint256",
          "name": "startingTimestamp",
          "type": "uint256"
        },
        {
          "internalType": "uint256",
          "name": "endingTimestamp",
          "type": "uint256"
        },
        {
          "internalType": "enum Project.pStatus",
          "name": "projectStatus",
          "type": "uint8"
        },
        {
          "internalType": "address",
          "name": "owner",
          "type": "address"
        },
        {
          "internalType": "uint256",
          "name": "currentBalance",
          "type": "uint256"
        }
      ],
      "stateMutability": "view",
      "type": "function",
      "constant": true
    },
    {
      "inputs": [],
      "name": "totalProjects",
      "outputs": [
        {
          "internalType": "uint256",
          "name": "",
          "type": "uint256"
        }
      ],
      "stateMutability": "view",
      "type": "function",
      "constant": true
    },
    {
      "inputs": [
        {
          "internalType": "uint256",
          "name": "projectID",
          "type": "uint256"
        }
      ],
      "name": "contribute",
      "outputs": [],
      "stateMutability": "payable",
      "type": "function",
      "payable": true
    },
    {
      "inputs": [
        {
          "internalType": "uint256",
          "name": "projectID",
          "type": "uint256"
        }
      ],
      "name": "payout",
      "outputs": [
        {
          "internalType": "bool",
          "name": "",
          "type": "bool"
        }
      ],
      "stateMutability": "payable",
      "type": "function",
      "payable": true
    },
    {
      "inputs": [
        {
          "internalType": "uint256",
          "name": "projectID",
          "type": "uint256"
        }
      ],
      "name": "bulkRefund",
      "outputs": [
        {
          "internalType": "bool",
          "name": "",
          "type": "bool"
        }
      ],
      "stateMutability": "payable",
      "type": "function",
      "payable": true
    },
    {
      "inputs": [
        {
          "internalType": "uint256",
          "name": "projectID",
          "type": "uint256"
        }
      ],
      "name": "getRefund",
      "outputs": [
        {
          "internalType": "bool",
          "name": "",
          "type": "bool"
        }
      ],
      "stateMutability": "payable",
      "type": "function",
      "payable": true
    },
    {
      "inputs": [
        {
          "internalType": "address",
          "name": "contributor",
          "type": "address"
        }
      ],
      "name": "getContributedProjects",
      "outputs": [
        {
          "internalType": "uint256[]",
          "name": "",
          "type": "uint256[]"
        }
      ],
      "stateMutability": "view",
      "type": "function",
      "constant": true
    },
    {
      "inputs": [
        {
          "internalType": "uint256",
          "name": "projectID",
          "type": "uint256"
        },
        {
          "internalType": "address",
          "name": "contributor",
          "type": "address"
        }
      ],
      "name": "getProjectContribution",
      "outputs": [
        {
          "internalType": "uint256",
          "name": "",
          "type": "uint256"
        }
      ],
      "stateMutability": "view",
      "type": "function",
      "constant": true
    }
  ],
  "bytecode": "0x608060405234801561001057600080fd5b5033600360006101000a81548173ffffffffffffffffffffffffffffffffffffffff021916908373ffffffffffffffffffffffffffffffffffffffff16021790555061274b806100616000396000f3fe6080604052600436106100915760003560e01c8063c1cbbca711610059578063c1cbbca7146101b5578063d2f0be99146101d1578063e115234314610201578063e488224514610231578063f0f3f2c81461026157610091565b80632295dd441461009657806322da87b9146100d3578063246f220b1461011057806394ba97091461014d5780639c361e4e1461018a575b600080fd5b3480156100a257600080fd5b506100bd60048036038101906100b8919061195b565b6102a8565b6040516100ca9190611e48565b60405180910390f35b3480156100df57600080fd5b506100fa60048036038101906100f5919061185a565b610303565b6040516101079190611c6b565b60405180910390f35b34801561011c57600080fd5b506101376004803603810190610132919061185a565b61039a565b6040516101449190611c6b565b60405180910390f35b34801561015957600080fd5b50610174600480360381019061016f9190611887565b610431565b6040516101819190611e48565b60405180910390f35b34801561019657600080fd5b5061019f6105c2565b6040516101ac9190611e48565b60405180910390f35b6101cf60048036038101906101ca919061192e565b6105cb565b005b6101eb60048036038101906101e6919061192e565b610af3565b6040516101f89190611c8d565b60405180910390f35b61021b6004803603810190610216919061192e565b610e20565b6040516102289190611c8d565b60405180910390f35b61024b6004803603810190610246919061192e565b61102e565b6040516102589190611c8d565b60405180910390f35b34801561026d57600080fd5b506102886004803603810190610283919061192e565b6113e1565b60405161029f9b9a99989796959493929190611edf565b60405180910390f35b60006006600084815260200190815260200160002060008373ffffffffffffffffffffffffffffffffffffffff1673ffffffffffffffffffffffffffffffffffffffff16815260200190815260200160002054905092915050565b6060600560008373ffffffffffffffffffffffffffffffffffffffff1673ffffffffffffffffffffffffffffffffffffffff16815260200190815260200160002080548060200260200160405190810160405280929190818152602001828054801561038e57602002820191906000526020600020905b81548152602001906001019080831161037a575b50505050509050919050565b6060600260008373ffffffffffffffffffffffffffffffffffffffff1673ffffffffffffffffffffffffffffffffffffffff16815260200190815260200160002080548060200260200160405190810160405280929190818152602001828054801561042557602002820191906000526020600020905b815481526020019060010190808311610411575b50505050509050919050565b60008042905061044d60016000546115f190919063ffffffff16565b6000819055506000805490506000600160008381526020019081526020016000209050818160000181905550898982600101919061048c929190611737565b5087878260020191906104a0929190611737565b50858160030181905550848160050181905550828160060181905550603c856104c99190612074565b836104d49190611fed565b816007018190555060008160090160006101000a81548160ff02191690836002811115610504576105036122b1565b5b0217905550338160090160016101000a81548173ffffffffffffffffffffffffffffffffffffffff021916908373ffffffffffffffffffffffffffffffffffffffff160217905550600260003373ffffffffffffffffffffffffffffffffffffffff1673ffffffffffffffffffffffffffffffffffffffff1681526020019081526020016000208290806001815401808255809150506001900390600052602060002001600090919091909150558193505050509695505050505050565b60008054905090565b803373ffffffffffffffffffffffffffffffffffffffff166001600083815260200190815260200160002060090160019054906101000a900473ffffffffffffffffffffffffffffffffffffffff1673ffffffffffffffffffffffffffffffffffffffff161415610671576040517f08c379a000000000000000000000000000000000000000000000000000000000815260040161066890611d88565b60405180910390fd5b6000600160008481526020019081526020016000206000015414156106cb576040517f08c379a00000000000000000000000000000000000000000000000000000000081526004016106c290611ca8565b60405180910390fd5b42600160008481526020019081526020016000206007015411610723576040517f08c379a000000000000000000000000000000000000000000000000000000000815260040161071a90611e28565b60405180910390fd5b60006002811115610737576107366122b1565b5b6001600084815260200190815260200160002060090160009054906101000a900460ff16600281111561076d5761076c6122b1565b5b146107ad576040517f08c379a00000000000000000000000000000000000000000000000000000000081526004016107a490611de8565b60405180910390fd5b670de0b6b3a76400003410156107f8576040517f08c379a00000000000000000000000000000000000000000000000000000000081526004016107ef90611d28565b60405180910390fd5b60006006600084815260200190815260200160002060003373ffffffffffffffffffffffffffffffffffffffff1673ffffffffffffffffffffffffffffffffffffffff168152602001908152602001600020549050600060016000858152602001908152602001600020600301549050600060016000868152602001908152602001600020600a015490506000811461090d576000670de0b6b3a76400006108bc670de0b6b3a7640000846108ad9190612043565b8561160790919063ffffffff16565b6108c69190612074565b90503481101561090b576040517f08c379a000000000000000000000000000000000000000000000000000000000815260040161090290611dc8565b60405180910390fd5b505b60008314156109f15760046000868152602001908152602001600020339080600181540180825580915050600190039060005260206000200160009091909190916101000a81548173ffffffffffffffffffffffffffffffffffffffff021916908373ffffffffffffffffffffffffffffffffffffffff160217905550600560003373ffffffffffffffffffffffffffffffffffffffff1673ffffffffffffffffffffffffffffffffffffffff1681526020019081526020016000208590806001815401808255809150506001900390600052602060002001600090919091909150555b610a0434846115f190919063ffffffff16565b9250826006600087815260200190815260200160002060003373ffffffffffffffffffffffffffffffffffffffff1673ffffffffffffffffffffffffffffffffffffffff16815260200190815260200160002081905550610a6e34826115f190919063ffffffff16565b90508060016000878152602001908152602001600020600a01819055508060016000878152602001908152602001600020600401819055507f8f69cdbf98ee86b54b16f9e7b2be9ea148d215d045e1083da4c6048ad7f96c1785333484604051610adb9493929190611e9a565b60405180910390a1610aec8561161d565b5050505050565b600060016002811115610b0957610b086122b1565b5b6001600084815260200190815260200160002060090160009054906101000a900460ff166002811115610b3f57610b3e6122b1565b5b1415610b80576040517f08c379a0000000000000000000000000000000000000000000000000000000008152600401610b7790611cc8565b60405180910390fd5b600060016000848152602001908152602001600020600701549050804211610bdd576040517f08c379a0000000000000000000000000000000000000000000000000000000008152600401610bd490611e08565b60405180910390fd5b6000806006600086815260200190815260200160002060003373ffffffffffffffffffffffffffffffffffffffff1673ffffffffffffffffffffffffffffffffffffffff1681526020019081526020016000205411610c3d576000610c8f565b6006600085815260200190815260200160002060003373ffffffffffffffffffffffffffffffffffffffff1673ffffffffffffffffffffffffffffffffffffffff168152602001908152602001600020545b905060008111610cd4576040517f08c379a0000000000000000000000000000000000000000000000000000000008152600401610ccb90611d48565b60405180910390fd5b600280811115610ce757610ce66122b1565b5b6001600086815260200190815260200160002060090160009054906101000a900460ff166002811115610d1d57610d1c6122b1565b5b14610d2c57610d2b8461161d565b5b3373ffffffffffffffffffffffffffffffffffffffff166108fc829081150290604051600060405180830381858888f19350505050158015610d72573d6000803e3d6000fd5b5060006006600086815260200190815260200160002060003373ffffffffffffffffffffffffffffffffffffffff1673ffffffffffffffffffffffffffffffffffffffff16815260200190815260200160002081905550600060016000868152602001908152602001600020600a01549050610df7828261160790919063ffffffff16565b90508060016000878152602001908152602001600020600a018190555060019350505050919050565b6000806001600084815260200190815260200160002060090160019054906101000a900473ffffffffffffffffffffffffffffffffffffffff169050600060016000858152602001908152602001600020600a015490506000670de0b6b3a76400006001600087815260200190815260200160002060030154610ea39190612074565b905060008211610ee8576040517f08c379a0000000000000000000000000000000000000000000000000000000008152600401610edf90611da8565b60405180910390fd5b80821015610f2b576040517f08c379a0000000000000000000000000000000000000000000000000000000008152600401610f2290611d08565b60405180910390fd5b8273ffffffffffffffffffffffffffffffffffffffff166108fc839081150290604051600060405180830381858888f19350505050158015610f71573d6000803e3d6000fd5b50426001600087815260200190815260200160002060080181905550600180600087815260200190815260200160002060090160006101000a81548160ff02191690836002811115610fc657610fc56122b1565b5b0217905550600060016000878152602001908152602001600020600a01819055507fde2b282ef7cbd9542271a8413f90f3184c7756d7285c47c55b7ce578cd07cd6985848460405161101a93929190611e63565b60405180910390a160019350505050919050565b60003373ffffffffffffffffffffffffffffffffffffffff16600360009054906101000a900473ffffffffffffffffffffffffffffffffffffffff1673ffffffffffffffffffffffffffffffffffffffff16146110c0576040517f08c379a00000000000000000000000000000000000000000000000000000000081526004016110b790611ce8565b60405180910390fd5b600160028111156110d4576110d36122b1565b5b6001600084815260200190815260200160002060090160009054906101000a900460ff16600281111561110a576111096122b1565b5b141561114b576040517f08c379a000000000000000000000000000000000000000000000000000000000815260040161114290611cc8565b60405180910390fd5b6000600160008481526020019081526020016000206007015490508042116111a8576040517f08c379a000000000000000000000000000000000000000000000000000000000815260040161119f90611e08565b60405180910390fd5b6002808111156111bb576111ba6122b1565b5b6001600085815260200190815260200160002060090160009054906101000a900460ff1660028111156111f1576111f06122b1565b5b14611200576111ff8361161d565b5b60006004600085815260200190815260200160002080549050905060005b8181101561137a57600060046000878152602001908152602001600020828154811061124d5761124c61230f565b5b9060005260206000200160009054906101000a900473ffffffffffffffffffffffffffffffffffffffff1690506000600660008881526020019081526020016000206000600460008a815260200190815260200160002085815481106112b6576112b561230f565b5b9060005260206000200160009054906101000a900473ffffffffffffffffffffffffffffffffffffffff1673ffffffffffffffffffffffffffffffffffffffff1673ffffffffffffffffffffffffffffffffffffffff1681526020019081526020016000205490508173ffffffffffffffffffffffffffffffffffffffff166108fc829081150290604051600060405180830381858888f19350505050158015611364573d6000803e3d6000fd5b50505080806113729061220a565b91505061121e565b50600060016000868152602001908152602001600020600a018190555060026001600086815260200190815260200160002060090160006101000a81548160ff021916908360028111156113d1576113d06122b1565b5b0217905550600192505050919050565b60006060806000806000806000806000806000600160008e81526020019081526020016000209050600081600001541415611451576040517f08c379a000000000000000000000000000000000000000000000000000000000815260040161144890611d68565b60405180910390fd5b80600001548160010182600201836003015484600401548560050154866006015487600701548860090160009054906101000a900460ff168960090160019054906101000a900473ffffffffffffffffffffffffffffffffffffffff168a600a01548980546114bf906121d8565b80601f01602080910402602001604051908101604052809291908181526020018280546114eb906121d8565b80156115385780601f1061150d57610100808354040283529160200191611538565b820191906000526020600020905b81548152906001019060200180831161151b57829003601f168201915b5050505050995088805461154b906121d8565b80601f0160208091040260200160405190810160405280929190818152602001828054611577906121d8565b80156115c45780601f10611599576101008083540402835291602001916115c4565b820191906000526020600020905b8154815290600101906020018083116115a757829003601f168201915b505050505098509b509b509b509b509b509b509b509b509b509b509b505091939597999b90929496989a50565b600081836115ff9190611fed565b905092915050565b6000818361161591906120ce565b905092915050565b60006002811115611631576116306122b1565b5b6001600083815260200190815260200160002060090160009054906101000a900460ff166002811115611667576116666122b1565b5b1415611734576000670de0b6b3a764000060016000848152602001908152602001600020600a01546116999190612043565b90506000600160008481526020019081526020016000206003015490506000600160008581526020019081526020016000206007015490508183106116e7576116e184610e20565b50611730565b8042111561172f5760026001600086815260200190815260200160002060090160006101000a81548160ff02191690836002811115611729576117286122b1565b5b02179055505b5b5050505b50565b828054611743906121d8565b90600052602060002090601f01602090048101928261176557600085556117ac565b82601f1061177e57803560ff19168380011785556117ac565b828001600101855582156117ac579182015b828111156117ab578235825591602001919060010190611790565b5b5090506117b991906117bd565b5090565b5b808211156117d65760008160009055506001016117be565b5090565b6000813590506117e9816126e7565b92915050565b60008083601f84011261180557611804612343565b5b8235905067ffffffffffffffff8111156118225761182161233e565b5b60208301915083600182028301111561183e5761183d612348565b5b9250929050565b600081359050611854816126fe565b92915050565b6000602082840312156118705761186f612352565b5b600061187e848285016117da565b91505092915050565b600080600080600080608087890312156118a4576118a3612352565b5b600087013567ffffffffffffffff8111156118c2576118c161234d565b5b6118ce89828a016117ef565b9650965050602087013567ffffffffffffffff8111156118f1576118f061234d565b5b6118fd89828a016117ef565b9450945050604061191089828a01611845565b925050606061192189828a01611845565b9150509295509295509295565b60006020828403121561194457611943612352565b5b600061195284828501611845565b91505092915050565b6000806040838503121561197257611971612352565b5b600061198085828601611845565b9250506020611991858286016117da565b9150509250929050565b60006119a78383611c4d565b60208301905092915050565b6119bc8161215d565b82525050565b6119cb81612102565b82525050565b60006119dc82611fa8565b6119e68185611fcb565b93506119f183611f98565b8060005b83811015611a22578151611a09888261199b565b9750611a1483611fbe565b9250506001810190506119f5565b5085935050505092915050565b611a3881612114565b82525050565b611a478161216f565b82525050565b6000611a5882611fb3565b611a628185611fdc565b9350611a728185602086016121a5565b611a7b81612357565b840191505092915050565b6000611a93601683611fdc565b9150611a9e82612368565b602082019050919050565b6000611ab6602a83611fdc565b9150611ac182612391565b604082019050919050565b6000611ad9600d83611fdc565b9150611ae4826123e0565b602082019050919050565b6000611afc603183611fdc565b9150611b0782612409565b604082019050919050565b6000611b1f602783611fdc565b9150611b2a82612458565b604082019050919050565b6000611b42603483611fdc565b9150611b4d826124a7565b604082019050919050565b6000611b65601283611fdc565b9150611b70826124f6565b602082019050919050565b6000611b88602483611fdc565b9150611b938261251f565b604082019050919050565b6000611bab602283611fdc565b9150611bb68261256e565b604082019050919050565b6000611bce603383611fdc565b9150611bd9826125bd565b604082019050919050565b6000611bf1602c83611fdc565b9150611bfc8261260c565b604082019050919050565b6000611c14601f83611fdc565b9150611c1f8261265b565b602082019050919050565b6000611c37602d83611fdc565b9150611c4282612684565b604082019050919050565b611c5681612153565b82525050565b611c6581612153565b82525050565b60006020820190508181036000830152611c8581846119d1565b905092915050565b6000602082019050611ca26000830184611a2f565b92915050565b60006020820190508181036000830152611cc181611a86565b9050919050565b60006020820190508181036000830152611ce181611aa9565b9050919050565b60006020820190508181036000830152611d0181611acc565b9050919050565b60006020820190508181036000830152611d2181611aef565b9050919050565b60006020820190508181036000830152611d4181611b12565b9050919050565b60006020820190508181036000830152611d6181611b35565b9050919050565b60006020820190508181036000830152611d8181611b58565b9050919050565b60006020820190508181036000830152611da181611b7b565b9050919050565b60006020820190508181036000830152611dc181611b9e565b9050919050565b60006020820190508181036000830152611de181611bc1565b9050919050565b60006020820190508181036000830152611e0181611be4565b9050919050565b60006020820190508181036000830152611e2181611c07565b9050919050565b60006020820190508181036000830152611e4181611c2a565b9050919050565b6000602082019050611e5d6000830184611c5c565b92915050565b6000606082019050611e786000830186611c5c565b611e8560208301856119b3565b611e926040830184611c5c565b949350505050565b6000608082019050611eaf6000830187611c5c565b611ebc60208301866119c2565b611ec96040830185611c5c565b611ed66060830184611c5c565b95945050505050565b600061016082019050611ef5600083018e611c5c565b8181036020830152611f07818d611a4d565b90508181036040830152611f1b818c611a4d565b9050611f2a606083018b611c5c565b611f37608083018a611c5c565b611f4460a0830189611c5c565b611f5160c0830188611c5c565b611f5e60e0830187611c5c565b611f6c610100830186611a3e565b611f7a6101208301856119c2565b611f88610140830184611c5c565b9c9b505050505050505050505050565b6000819050602082019050919050565b600081519050919050565b600081519050919050565b6000602082019050919050565b600082825260208201905092915050565b600082825260208201905092915050565b6000611ff882612153565b915061200383612153565b9250827fffffffffffffffffffffffffffffffffffffffffffffffffffffffffffffffff0382111561203857612037612253565b5b828201905092915050565b600061204e82612153565b915061205983612153565b92508261206957612068612282565b5b828204905092915050565b600061207f82612153565b915061208a83612153565b9250817fffffffffffffffffffffffffffffffffffffffffffffffffffffffffffffffff04831182151516156120c3576120c2612253565b5b828202905092915050565b60006120d982612153565b91506120e483612153565b9250828210156120f7576120f6612253565b5b828203905092915050565b600061210d82612133565b9050919050565b60008115159050919050565b600081905061212e826126d3565b919050565b600073ffffffffffffffffffffffffffffffffffffffff82169050919050565b6000819050919050565b600061216882612181565b9050919050565b600061217a82612120565b9050919050565b600061218c82612193565b9050919050565b600061219e82612133565b9050919050565b60005b838110156121c35780820151818401526020810190506121a8565b838111156121d2576000848401525b50505050565b600060028204905060018216806121f057607f821691505b60208210811415612204576122036122e0565b5b50919050565b600061221582612153565b91507fffffffffffffffffffffffffffffffffffffffffffffffffffffffffffffffff82141561224857612247612253565b5b600182019050919050565b7f4e487b7100000000000000000000000000000000000000000000000000000000600052601160045260246000fd5b7f4e487b7100000000000000000000000000000000000000000000000000000000600052601260045260246000fd5b7f4e487b7100000000000000000000000000000000000000000000000000000000600052602160045260246000fd5b7f4e487b7100000000000000000000000000000000000000000000000000000000600052602260045260246000fd5b7f4e487b7100000000000000000000000000000000000000000000000000000000600052603260045260246000fd5b600080fd5b600080fd5b600080fd5b600080fd5b600080fd5b6000601f19601f8301169050919050565b7f50726f6a65637420646f65736e27742065786973747300000000000000000000600082015250565b7f50726f6a65637420636f6d706c6574656420616c726561647920756e61626c6560008201527f20746f20726566756e6400000000000000000000000000000000000000000000602082015250565b7f4163636573732044656e69656400000000000000000000000000000000000000600082015250565b7f556e61626c6520746f207061796f7574206e6f772e2046756e64206e6f74207260008201527f6561636865642074686520746172676574000000000000000000000000000000602082015250565b7f4d696e756d756d20616d6f756e7420746f20636f6e747269627574652069732060008201527f3120657468657200000000000000000000000000000000000000000000000000602082015250565b7f556e61626c6520746f20726566756e642e204e6f7420612076616c696420636f60008201527f6e747269627574696f6e20746f20726566756e64000000000000000000000000602082015250565b7f496e76616c69642050726f6a6563742049440000000000000000000000000000600082015250565b7f5468652070726f6a656374206f776e65722063616e206e6f7420636f6e74726960008201527f6275746500000000000000000000000000000000000000000000000000000000602082015250565b7f556e61626c6520746f207061796f7574206e6f772e20496e76616c696420667560008201527f6e64000000000000000000000000000000000000000000000000000000000000602082015250565b7f596f752061726520747279696e6720746f2073656e64206d6f72652066756e6460008201527f207468616e2072657175697265642066756e6400000000000000000000000000602082015250565b7f556e61626c6520746f207061796f7574206e6f772e20496e76616c696420667560008201527f6e64696e67207374617475730000000000000000000000000000000000000000602082015250565b7f50726f6a65637420646561646c696e65206973206e6f74207265616368656400600082015250565b7f50726f6a65637420646561646c696e6520726561636865642e20756e61626c6560008201527f20746f2073656e642066756e6400000000000000000000000000000000000000602082015250565b600381106126e4576126e36122b1565b5b50565b6126f081612102565b81146126fb57600080fd5b50565b61270781612153565b811461271257600080fd5b5056fea26469706673582212208a5816b047d767e8fb689a3f9257c586a785c7ff703349e1bfe93a3e9b6ef47064736f6c63430008070033",
  "immutableReferences": {},
  "source": "// SPDX-License-Identifier: MIT\npragma solidity >=0.6.0 <0.9.0;\n\nimport \"./library/SafeMath.sol\";\nimport \"./library/SafeMath8.sol\";\nimport \"./library/SafeMath16.sol\";\nimport \"./library/Timer.sol\";\nimport \"./Project.sol\";\n\ncontract Crowdfunding is Project {\n\n    using SafeMath for uint256;\n\n    address payable contractAdmin;\n\n    //Contributions\n    mapping (uint => address[]) private projectContributors;\n    mapping (address => uint[]) private contributedProjects;\n    mapping (uint => mapping(address => uint256)) private projectContributions;\n\n    //Modifiers\n    modifier onlyAdmin() {\n        require(contractAdmin == msg.sender,\"Access Denied\");\n        _;\n    }\n\n    modifier notOwner(uint projectID) {\n        require(projects[projectID].owner != msg.sender,\"The project owner can not contribute\");\n        _;\n    }\n    \n    //Events\n    event fundReceived(uint256 projectID, address contributor, uint256 amount, uint256 currentBalance);\n    event ownerPaid(uint256 projectID, address owner, uint256 receivedAmount);\n\n    constructor() {\n        //Defaults\n        contractAdmin = payable(msg.sender);     \n    }\n\n    //Contribute to projects \n    function contribute(uint256 projectID) external payable notOwner(projectID) {\n        \n        require(projects[projectID].projectID != 0,\"Project doesn't exists\");\n        require(projects[projectID].endingTimestamp > block.timestamp,\"Project deadline reached. unable to send fund\");\n        require(projects[projectID].projectStatus == pStatus.Open,\"Unable to payout now. Invalid funding status\");\n        require(msg.value >= 1 ether,\"Minumum amount to contribute is 1 ether\");\n\n        uint256 _contributionBalance = projectContributions[projectID][msg.sender];\n        uint256 _targetAmount = projects[projectID].targetAmount;\n        uint256 _currentBalance = projects[projectID].currentBalance;\n        \n        if(_currentBalance != 0) {\n            uint256 _fundRequired = _targetAmount.sub(_currentBalance / 1 ether) * 1 ether; \n            require(_fundRequired >= msg.value,'You are trying to send more fund than required fund');\n        }        \n\n        if(_contributionBalance == 0) {\n            projectContributors[projectID].push(msg.sender);\n            contributedProjects[msg.sender].push(projectID);\n        }\n\n        _contributionBalance = _contributionBalance.add(msg.value);\n        projectContributions[projectID][msg.sender] = _contributionBalance;\n\n        _currentBalance = _currentBalance.add(msg.value);\n        projects[projectID].currentBalance = _currentBalance;\n        projects[projectID].receivedAmount = _currentBalance;\n\n        emit fundReceived(projectID, msg.sender, msg.value, _currentBalance);\n        updateProjectStatus(projectID);\n    }\n\n    //Update Project Status\n    function updateProjectStatus(uint256 projectID) private {\n        if(projects[projectID].projectStatus == pStatus.Open) {\n            uint256 _currentBalance = projects[projectID].currentBalance / 1 ether;\n            uint256 _targetAmount = projects[projectID].targetAmount;\n            uint256 _endingTimestamp = projects[projectID].endingTimestamp;\n\n            if(_currentBalance >= _targetAmount) {                \n                payout(projectID);                \n            } else if (block.timestamp > _endingTimestamp) {\n                projects[projectID].projectStatus = pStatus.Expired;\n            }\n        }        \n    }\n\n    //Pay/release funds to projec  t owner\n    function payout(uint256 projectID) public payable returns(bool) {\n        address payable _projectOwner = payable(projects[projectID].owner);\n        uint256 _currentBalance = projects[projectID].currentBalance;\n        uint256 _targetAmount = projects[projectID].targetAmount * 1 ether;\n        \n        require(_currentBalance > 0,\"Unable to payout now. Invalid fund\");\n        require(_currentBalance >= _targetAmount,\"Unable to payout now. Fund not reached the target\");\n                \n        _projectOwner.transfer(_currentBalance);  \n        \n        projects[projectID].completedTimestamp = block.timestamp;\n        projects[projectID].projectStatus = pStatus.Completed;\n        projects[projectID].currentBalance = 0;\n\n        emit ownerPaid(projectID,_projectOwner,_currentBalance);\n        return true;\n    }\n\n    //Refund to the project contributors if fund not reached goal and expired\n    function bulkRefund(uint256 projectID) external onlyAdmin() payable returns(bool) {\n        require(projects[projectID].projectStatus != pStatus.Completed, \"Project completed already unable to refund\");        \n\n        //Check Deadline is reached or not\n        uint256 _endingTimestamp = projects[projectID].endingTimestamp;\n        require(block.timestamp > _endingTimestamp, \"Project deadline is not reached\");        \n\n        if(projects[projectID].projectStatus != pStatus.Expired)\n            updateProjectStatus(projectID);\n\n        //Bulk refund \n        uint256 _contributorsLength = projectContributors[projectID].length;\n        for(uint256 i=0; i<_contributorsLength; i++ ) {\n            address payable _contributor = payable(projectContributors[projectID][i]);\n            uint256 _contribution = projectContributions[projectID][address(projectContributors[projectID][i])];\n            _contributor.transfer(_contribution);\n        }\n\n        //update project current balance\n        projects[projectID].currentBalance = 0;        \n        projects[projectID].projectStatus = pStatus.Expired;\n\n        return true;\n    }\n    \n    //get refund\n    function getRefund(uint256 projectID) external payable returns(bool){\n\n        require(projects[projectID].projectStatus != pStatus.Completed, \"Project completed already unable to refund\");        \n\n        //Check Deadline is reached or not    \n        uint256 _endingTimestamp = projects[projectID].endingTimestamp;\n        require(block.timestamp > _endingTimestamp, \"Project deadline is not reached\");\n\n        //Check the contribution amount is valid\n        uint256 _contribution = uint256(projectContributions[projectID][address(msg.sender)]) > 0  ?  projectContributions[projectID][address(msg.sender)] : 0;\n        require(_contribution > 0, \"Unable to refund. Not a valid contribution to refund\");\n\n        if(projects[projectID].projectStatus != pStatus.Expired)\n            updateProjectStatus(projectID);\n\n        //Refund to the contributor\n        payable(msg.sender).transfer(_contribution);\n        projectContributions[projectID][address(msg.sender)] = 0;\n\n        //Update project current balance after refund\n        uint256 _currentBalance = projects[projectID].currentBalance;\n        _currentBalance = _currentBalance.sub(_contribution);\n        projects[projectID].currentBalance = _currentBalance;\n\n        return true;\n    }\n\n    function getContributedProjects(address contributor) public view returns(uint256[] memory) {\n\n        return contributedProjects[contributor];\n    }\n\n    function getProjectContribution(uint256 projectID, address contributor) public view returns(uint256) {\n\n        return projectContributions[projectID][contributor];\n    }\n}",
  "sourcePath": "/var/www/html/blaze-coin/Crowdfunding/contracts/Crowdfunding.sol",
  "compiler": {
    "name": "solc",
    "version": "0.8.7+commit.e28d00a7.Emscripten.clang"
  },
  "schemaVersion": "3.4.1",
  "updatedAt": "2021-09-16T15:40:34.981Z",
  "networkType": "ethereum",
  "devdoc": {
    "kind": "dev",
    "methods": {},
    "version": 1
  },
  "userdoc": {
    "kind": "user",
    "methods": {},
    "version": 1
  }
}