{
  "contractName": "Project",
  "abi": [
    {
      "inputs": [
        {
          "internalType": "string",
          "name": "_title",
          "type": "string"
        },
        {
          "internalType": "string",
          "name": "_description",
          "type": "string"
        },
        {
          "internalType": "uint256",
          "name": "_targetAmount",
          "type": "uint256"
        },
        {
          "internalType": "uint256",
          "name": "_deadlineInDays",
          "type": "uint256"
        }
      ],
      "name": "createProject",
      "outputs": [
        {
          "internalType": "uint256",
          "name": "projectID",
          "type": "uint256"
        }
      ],
      "stateMutability": "nonpayable",
      "type": "function"
    },
    {
      "inputs": [
        {
          "internalType": "uint256",
          "name": "projectID",
          "type": "uint256"
        }
      ],
      "name": "getProject",
      "outputs": [
        {
          "internalType": "uint256",
          "name": "_projectID",
          "type": "uint256"
        },
        {
          "internalType": "string",
          "name": "title",
          "type": "string"
        },
        {
          "internalType": "string",
          "name": "description",
          "type": "string"
        },
        {
          "internalType": "uint256",
          "name": "targetAmount",
          "type": "uint256"
        },
        {
          "internalType": "uint256",
          "name": "receivedAmount",
          "type": "uint256"
        },
        {
          "internalType": "uint256",
          "name": "deadlineInDays",
          "type": "uint256"
        },
        {
          "internalType": "uint256",
          "name": "startingTimestamp",
          "type": "uint256"
        },
        {
          "internalType": "uint256",
          "name": "endingTimestamp",
          "type": "uint256"
        },
        {
          "internalType": "enum Project.pStatus",
          "name": "projectStatus",
          "type": "uint8"
        },
        {
          "internalType": "address",
          "name": "owner",
          "type": "address"
        },
        {
          "internalType": "uint256",
          "name": "currentBalance",
          "type": "uint256"
        }
      ],
      "stateMutability": "view",
      "type": "function"
    },
    {
      "inputs": [],
      "name": "totalProjects",
      "outputs": [
        {
          "internalType": "uint256",
          "name": "",
          "type": "uint256"
        }
      ],
      "stateMutability": "view",
      "type": "function"
    },
    {
      "inputs": [
        {
          "internalType": "address",
          "name": "projectOwner",
          "type": "address"
        }
      ],
      "name": "getOwnerProjects",
      "outputs": [
        {
          "internalType": "uint256[]",
          "name": "",
          "type": "uint256[]"
        }
      ],
      "stateMutability": "view",
      "type": "function"
    }
  ],
  "bytecode": "0x608060405234801561001057600080fd5b50610ccb806100206000396000f3fe608060405234801561001057600080fd5b506004361061004c5760003560e01c8063246f220b1461005157806394ba9709146100815780639c361e4e146100b1578063f0f3f2c8146100cf575b600080fd5b61006b60048036038101906100669190610683565b610109565b6040516100789190610892565b60405180910390f35b61009b600480360381019061009691906106b0565b6101a0565b6040516100a891906108d4565b60405180910390f35b6100b9610331565b6040516100c691906108d4565b60405180910390f35b6100e960048036038101906100e49190610757565b61033a565b6040516101009b9a999897969594939291906108ef565b60405180910390f35b6060600260008373ffffffffffffffffffffffffffffffffffffffff1673ffffffffffffffffffffffffffffffffffffffff16815260200190815260200160002080548060200260200160405190810160405280929190818152602001828054801561019457602002820191906000526020600020905b815481526020019060010190808311610180575b50505050509050919050565b6000804290506101bc600160005461054a90919063ffffffff16565b600081905550600080549050600060016000838152602001908152602001600020905081816000018190555089898260010191906101fb929190610560565b50878782600201919061020f929190610560565b50858160030181905550848160050181905550828160060181905550603c856102389190610a53565b8361024391906109fd565b816007018190555060008160090160006101000a81548160ff0219169083600281111561027357610272610ba2565b5b0217905550338160090160016101000a81548173ffffffffffffffffffffffffffffffffffffffff021916908373ffffffffffffffffffffffffffffffffffffffff160217905550600260003373ffffffffffffffffffffffffffffffffffffffff1673ffffffffffffffffffffffffffffffffffffffff1681526020019081526020016000208290806001815401808255809150506001900390600052602060002001600090919091909150558193505050509695505050505050565b60008054905090565b60006060806000806000806000806000806000600160008e815260200190815260200160002090506000816000015414156103aa576040517f08c379a00000000000000000000000000000000000000000000000000000000081526004016103a1906108b4565b60405180910390fd5b80600001548160010182600201836003015484600401548560050154866006015487600701548860090160009054906101000a900460ff168960090160019054906101000a900473ffffffffffffffffffffffffffffffffffffffff168a600a015489805461041890610b41565b80601f016020809104026020016040519081016040528092919081815260200182805461044490610b41565b80156104915780601f1061046657610100808354040283529160200191610491565b820191906000526020600020905b81548152906001019060200180831161047457829003601f168201915b505050505099508880546104a490610b41565b80601f01602080910402602001604051908101604052809291908181526020018280546104d090610b41565b801561051d5780601f106104f25761010080835404028352916020019161051d565b820191906000526020600020905b81548152906001019060200180831161050057829003601f168201915b505050505098509b509b509b509b509b509b509b509b509b509b509b505091939597999b90929496989a50565b6000818361055891906109fd565b905092915050565b82805461056c90610b41565b90600052602060002090601f01602090048101928261058e57600085556105d5565b82601f106105a757803560ff19168380011785556105d5565b828001600101855582156105d5579182015b828111156105d45782358255916020019190600101906105b9565b5b5090506105e291906105e6565b5090565b5b808211156105ff5760008160009055506001016105e7565b5090565b60008135905061061281610c67565b92915050565b60008083601f84011261062e5761062d610c05565b5b8235905067ffffffffffffffff81111561064b5761064a610c00565b5b60208301915083600182028301111561066757610666610c0a565b5b9250929050565b60008135905061067d81610c7e565b92915050565b60006020828403121561069957610698610c14565b5b60006106a784828501610603565b91505092915050565b600080600080600080608087890312156106cd576106cc610c14565b5b600087013567ffffffffffffffff8111156106eb576106ea610c0f565b5b6106f789828a01610618565b9650965050602087013567ffffffffffffffff81111561071a57610719610c0f565b5b61072689828a01610618565b9450945050604061073989828a0161066e565b925050606061074a89828a0161066e565b9150509295509295509295565b60006020828403121561076d5761076c610c14565b5b600061077b8482850161066e565b91505092915050565b60006107908383610874565b60208301905092915050565b6107a581610aad565b82525050565b60006107b6826109b8565b6107c081856109db565b93506107cb836109a8565b8060005b838110156107fc5781516107e38882610784565b97506107ee836109ce565b9250506001810190506107cf565b5085935050505092915050565b61081281610afc565b82525050565b6000610823826109c3565b61082d81856109ec565b935061083d818560208601610b0e565b61084681610c19565b840191505092915050565b600061085e6012836109ec565b915061086982610c2a565b602082019050919050565b61087d81610af2565b82525050565b61088c81610af2565b82525050565b600060208201905081810360008301526108ac81846107ab565b905092915050565b600060208201905081810360008301526108cd81610851565b9050919050565b60006020820190506108e96000830184610883565b92915050565b600061016082019050610905600083018e610883565b8181036020830152610917818d610818565b9050818103604083015261092b818c610818565b905061093a606083018b610883565b610947608083018a610883565b61095460a0830189610883565b61096160c0830188610883565b61096e60e0830187610883565b61097c610100830186610809565b61098a61012083018561079c565b610998610140830184610883565b9c9b505050505050505050505050565b6000819050602082019050919050565b600081519050919050565b600081519050919050565b6000602082019050919050565b600082825260208201905092915050565b600082825260208201905092915050565b6000610a0882610af2565b9150610a1383610af2565b9250827fffffffffffffffffffffffffffffffffffffffffffffffffffffffffffffffff03821115610a4857610a47610b73565b5b828201905092915050565b6000610a5e82610af2565b9150610a6983610af2565b9250817fffffffffffffffffffffffffffffffffffffffffffffffffffffffffffffffff0483118215151615610aa257610aa1610b73565b5b828202905092915050565b6000610ab882610ad2565b9050919050565b6000819050610acd82610c53565b919050565b600073ffffffffffffffffffffffffffffffffffffffff82169050919050565b6000819050919050565b6000610b0782610abf565b9050919050565b60005b83811015610b2c578082015181840152602081019050610b11565b83811115610b3b576000848401525b50505050565b60006002820490506001821680610b5957607f821691505b60208210811415610b6d57610b6c610bd1565b5b50919050565b7f4e487b7100000000000000000000000000000000000000000000000000000000600052601160045260246000fd5b7f4e487b7100000000000000000000000000000000000000000000000000000000600052602160045260246000fd5b7f4e487b7100000000000000000000000000000000000000000000000000000000600052602260045260246000fd5b600080fd5b600080fd5b600080fd5b600080fd5b600080fd5b6000601f19601f8301169050919050565b7f496e76616c69642050726f6a6563742049440000000000000000000000000000600082015250565b60038110610c6457610c63610ba2565b5b50565b610c7081610aad565b8114610c7b57600080fd5b50565b610c8781610af2565b8114610c9257600080fd5b5056fea2646970667358221220691135aa947f4abcaad2eb928ea0a3045beee3e4539d822e48861f75be6a137a64736f6c63430008070033",
  "immutableReferences": {},
  "source": "// SPDX-License-Identifier: MIT\npragma solidity >=0.6.0 <0.9.0;\n\nimport \"./library/SafeMath.sol\";\nimport \"./library/SafeMath8.sol\";\nimport \"./library/SafeMath16.sol\";\n\ncontract Project {\n\n    using SafeMath for uint256;\n    \n    enum pStatus {\n        Open,\n        Completed,\n        Expired        \n    }\n    \n    //Project Information\n    struct projectInfo {\n        uint256 projectID;\n        string title;\n        string description;\n        uint256 targetAmount;\n        uint256 receivedAmount;\n        uint256 deadlineInDays;\n        uint256 startingTimestamp;\n        uint256 endingTimestamp;\n        uint256 completedTimestamp;       \n        pStatus projectStatus;\n        address owner;\n        uint256 currentBalance;        \n    }\n    uint256 numOfProjects;\n\n    //Projects\n    mapping (uint256 => projectInfo) internal projects;\n    mapping (address => uint256[]) internal projectOwnerMap;\n\n    //Create Project\n    function createProject(\n        string calldata _title, \n        string calldata _description, \n        uint256 _targetAmount, \n        uint256 _deadlineInDays\n    ) external returns (uint256 projectID) {\n\n        uint256 _startingTimestamp = block.timestamp;\n        numOfProjects = numOfProjects.add(1);\n        uint256 _projectID = numOfProjects;\n\n        projectInfo storage project = projects[_projectID];\n        project.projectID = _projectID;\n        project.title = _title;\n        project.description = _description;\n        project.targetAmount = _targetAmount;\n        project.deadlineInDays = _deadlineInDays;\n        project.startingTimestamp = _startingTimestamp;\n        project.endingTimestamp = _startingTimestamp + _deadlineInDays * 1 minutes;\n        project.projectStatus = pStatus.Open;\n        project.owner = msg.sender;\n\n        projectOwnerMap[msg.sender].push(_projectID);\n\n        return _projectID;\n    }\n\n    //Get Project\n    function getProject(uint256 projectID) public view returns (\n        uint256 _projectID,\n        string memory title,\n        string memory description,\n        uint256 targetAmount,\n        uint256 receivedAmount,\n        uint256 deadlineInDays,\n        uint256 startingTimestamp,\n        uint256 endingTimestamp,        \n        pStatus projectStatus,\n        address owner,\n        uint256 currentBalance        \n    ) {\n\n        projectInfo storage project = projects[projectID];\n        \n        require(project.projectID != 0,\"Invalid Project ID\");\n \n        return (\n            project.projectID,\n            project.title,\n            project.description,\n            project.targetAmount,\n            project.receivedAmount,\n            project.deadlineInDays,\n            project.startingTimestamp,\n            project.endingTimestamp,\n            project.projectStatus,\n            project.owner,\n            project.currentBalance            \n        );\n    }\n    \n    function totalProjects() public view returns(uint) {\n        return numOfProjects;\n    }\n\n    function getOwnerProjects(address projectOwner) public view returns(uint256[] memory) {\n\n        return projectOwnerMap[projectOwner];\n    }\n}",
  "sourcePath": "/var/www/html/blaze-coin/Crowdfunding/contracts/Project.sol",
  "compiler": {
    "name": "solc",
    "version": "0.8.7+commit.e28d00a7.Emscripten.clang"
  },
  "schemaVersion": "3.4.1",
  "updatedAt": "2021-09-16T08:38:10.340Z",
  "devdoc": {
    "kind": "dev",
    "methods": {},
    "version": 1
  },
  "userdoc": {
    "kind": "user",
    "methods": {},
    "version": 1
  }
}