{
  "contractName": "Timer",
  "abi": [
    {
      "inputs": [],
      "stateMutability": "nonpayable",
      "type": "constructor"
    },
    {
      "inputs": [
        {
          "internalType": "uint256",
          "name": "time",
          "type": "uint256"
        }
      ],
      "name": "setCurrentTime",
      "outputs": [],
      "stateMutability": "nonpayable",
      "type": "function"
    },
    {
      "inputs": [],
      "name": "getCurrentTime",
      "outputs": [
        {
          "internalType": "uint256",
          "name": "",
          "type": "uint256"
        }
      ],
      "stateMutability": "view",
      "type": "function"
    }
  ],
  "bytecode": "0x608060405234801561001057600080fd5b5042600081905550610150806100276000396000f3fe608060405234801561001057600080fd5b50600436106100365760003560e01c806322f8e5661461003b57806329cb924d14610057575b600080fd5b6100556004803603810190610050919061009d565b610075565b005b61005f61007f565b60405161006c91906100d9565b60405180910390f35b8060008190555050565b60008054905090565b60008135905061009781610103565b92915050565b6000602082840312156100b3576100b26100fe565b5b60006100c184828501610088565b91505092915050565b6100d3816100f4565b82525050565b60006020820190506100ee60008301846100ca565b92915050565b6000819050919050565b600080fd5b61010c816100f4565b811461011757600080fd5b5056fea2646970667358221220957217ed516a20533719b5745616cdf7eb4169e172ca4d0e3a55e85f445d88cb64736f6c63430008070033",
  "immutableReferences": {},
  "source": "// SPDX-License-Identifier: MIT\npragma solidity >=0.6.0 < 0.9.0;\n\n/**\n * @title Universal store of current contract time for testing environments.\n */\ncontract Timer {\n    uint256 private currentTime;\n\n    constructor() {\n        currentTime = block.timestamp; \n    }\n\n    /**\n     * @notice Sets the current time.\n     * @dev Will revert if not running in test mode.\n     * @param time timestamp to set `currentTime` to.\n     */\n    function setCurrentTime(uint256 time) external {\n        currentTime = time;\n    }\n\n    /**\n     * @notice Gets the current time. Will return the last time set in `setCurrentTime` if running in test mode.\n     * Otherwise, it will return the block timestamp.\n     * @return uint256 for the current Testable timestamp.\n     */\n    function getCurrentTime() public view returns (uint256) {\n        return currentTime;\n    }\n}",
  "sourcePath": "/var/www/html/blaze-coin/Crowdfunding/contracts/library/Timer.sol",
  "compiler": {
    "name": "solc",
    "version": "0.8.7+commit.e28d00a7.Emscripten.clang"
  },
  "schemaVersion": "3.4.1",
  "updatedAt": "2021-09-15T08:31:22.947Z",
  "devdoc": {
    "kind": "dev",
    "methods": {
      "getCurrentTime()": {
        "returns": {
          "_0": "uint256 for the current Testable timestamp."
        }
      },
      "setCurrentTime(uint256)": {
        "details": "Will revert if not running in test mode.",
        "params": {
          "time": "timestamp to set `currentTime` to."
        }
      }
    },
    "title": "Universal store of current contract time for testing environments.",
    "version": 1
  },
  "userdoc": {
    "kind": "user",
    "methods": {
      "getCurrentTime()": {
        "notice": "Gets the current time. Will return the last time set in `setCurrentTime` if running in test mode. Otherwise, it will return the block timestamp."
      },
      "setCurrentTime(uint256)": {
        "notice": "Sets the current time."
      }
    },
    "version": 1
  }
}