{
  "contractName": "Crowdfunding",
  "abi": [
    {
      "inputs": [],
      "stateMutability": "nonpayable",
      "type": "constructor"
    },
    {
      "anonymous": false,
      "inputs": [
        {
          "indexed": false,
          "internalType": "uint256",
          "name": "projectID",
          "type": "uint256"
        },
        {
          "indexed": false,
          "internalType": "address",
          "name": "contributor",
          "type": "address"
        },
        {
          "indexed": false,
          "internalType": "uint256",
          "name": "amount",
          "type": "uint256"
        },
        {
          "indexed": false,
          "internalType": "uint256",
          "name": "currentBalance",
          "type": "uint256"
        }
      ],
      "name": "fundReceived",
      "type": "event"
    },
    {
      "anonymous": false,
      "inputs": [
        {
          "indexed": false,
          "internalType": "uint256",
          "name": "projectID",
          "type": "uint256"
        },
        {
          "indexed": false,
          "internalType": "address",
          "name": "owner",
          "type": "address"
        },
        {
          "indexed": false,
          "internalType": "uint256",
          "name": "currentBalance",
          "type": "uint256"
        }
      ],
      "name": "ownerPaid",
      "type": "event"
    },
    {
      "inputs": [
        {
          "internalType": "string",
          "name": "_title",
          "type": "string"
        },
        {
          "internalType": "string",
          "name": "_description",
          "type": "string"
        },
        {
          "internalType": "uint256",
          "name": "_targetAmount",
          "type": "uint256"
        },
        {
          "internalType": "uint256",
          "name": "_deadlineInDays",
          "type": "uint256"
        }
      ],
      "name": "createProject",
      "outputs": [
        {
          "internalType": "uint256",
          "name": "projectID",
          "type": "uint256"
        }
      ],
      "stateMutability": "nonpayable",
      "type": "function"
    },
    {
      "inputs": [
        {
          "internalType": "uint256",
          "name": "projectID",
          "type": "uint256"
        }
      ],
      "name": "getProject",
      "outputs": [
        {
          "internalType": "string",
          "name": "title",
          "type": "string"
        },
        {
          "internalType": "string",
          "name": "description",
          "type": "string"
        },
        {
          "internalType": "uint256",
          "name": "targetAmount",
          "type": "uint256"
        },
        {
          "internalType": "uint256",
          "name": "deadlineInDays",
          "type": "uint256"
        },
        {
          "internalType": "uint256",
          "name": "startingTimestamp",
          "type": "uint256"
        },
        {
          "internalType": "uint256",
          "name": "endingTimestamp",
          "type": "uint256"
        },
        {
          "internalType": "enum Project.fStatus",
          "name": "fundingStatus",
          "type": "uint8"
        },
        {
          "internalType": "enum Project.pStatus",
          "name": "projectStatus",
          "type": "uint8"
        },
        {
          "internalType": "address",
          "name": "owner",
          "type": "address"
        },
        {
          "internalType": "uint256",
          "name": "currentBalance",
          "type": "uint256"
        }
      ],
      "stateMutability": "view",
      "type": "function",
      "constant": true
    },
    {
      "inputs": [
        {
          "internalType": "uint256",
          "name": "projectID",
          "type": "uint256"
        }
      ],
      "name": "contribute",
      "outputs": [],
      "stateMutability": "payable",
      "type": "function",
      "payable": true
    },
    {
      "inputs": [
        {
          "internalType": "uint256",
          "name": "projectID",
          "type": "uint256"
        }
      ],
      "name": "payout",
      "outputs": [
        {
          "internalType": "bool",
          "name": "",
          "type": "bool"
        }
      ],
      "stateMutability": "payable",
      "type": "function",
      "payable": true
    },
    {
      "inputs": [
        {
          "internalType": "uint256",
          "name": "projectID",
          "type": "uint256"
        }
      ],
      "name": "refund",
      "outputs": [
        {
          "internalType": "bool",
          "name": "",
          "type": "bool"
        }
      ],
      "stateMutability": "payable",
      "type": "function",
      "payable": true
    }
  ],
  "bytecode": "0x608060405234801561001057600080fd5b5033600260006101000a81548173ffffffffffffffffffffffffffffffffffffffff021916908373ffffffffffffffffffffffffffffffffffffffff1602179055506118e1806100616000396000f3fe60806040526004361061004a5760003560e01c8063278ecde11461004f57806394ba97091461007f578063c1cbbca7146100bc578063e1152343146100d8578063f0f3f2c814610108575b600080fd5b61006960048036038101906100649190611027565b61014e565b60405161007691906111aa565b60405180910390f35b34801561008b57600080fd5b506100a660048036038101906100a19190610f80565b610488565b6040516100b3919061132f565b60405180910390f35b6100d660048036038101906100d19190611027565b6105d9565b005b6100f260048036038101906100ed9190611027565b610853565b6040516100ff91906111aa565b60405180910390f35b34801561011457600080fd5b5061012f600480360381019061012a9190611027565b610b8d565b6040516101459a999897969594939291906111c5565b60405180910390f35b60003373ffffffffffffffffffffffffffffffffffffffff16600260009054906101000a900473ffffffffffffffffffffffffffffffffffffffff1673ffffffffffffffffffffffffffffffffffffffff16146101e0576040517f08c379a00000000000000000000000000000000000000000000000000000000081526004016101d79061126f565b60405180910390fd5b600360048111156101f4576101f3611601565b5b6001600084815260200190815260200160002060080160009054906101000a900460ff16600481111561022a57610229611601565b5b1461026a576040517f08c379a0000000000000000000000000000000000000000000000000000000008152600401610261906112af565b60405180910390fd5b60006003600084815260200190815260200160002080549050905060005b818110156103e45760006003600086815260200190815260200160002082815481106102b7576102b661165f565b5b9060005260206000200160009054906101000a900473ffffffffffffffffffffffffffffffffffffffff16905060006004600087815260200190815260200160002060006003600089815260200190815260200160002085815481106103205761031f61165f565b5b9060005260206000200160009054906101000a900473ffffffffffffffffffffffffffffffffffffffff1673ffffffffffffffffffffffffffffffffffffffff1673ffffffffffffffffffffffffffffffffffffffff1681526020019081526020016000205490508173ffffffffffffffffffffffffffffffffffffffff166108fc829081150290604051600060405180830381858888f193505050501580156103ce573d6000803e3d6000fd5b50505080806103dc90611589565b915050610288565b506000600160008581526020019081526020016000206009018190555060046001600085815260200190815260200160002060080160006101000a81548160ff0219169083600481111561043b5761043a611601565b5b0217905550600180600085815260200190815260200160002060080160016101000a81548160ff0219169083600181111561047957610478611601565b5b02179055506001915050919050565b6000804290506104a46001600054610d5790919063ffffffff16565b600081905550600080549050600060016000838152602001908152602001600020905089898260010191906104da929190610e72565b5087878260020191906104ee929190610e72565b5085816003018190555084816004018190555082816005018190555062015180856105199190611438565b8361052491906113e2565b816006018190555060008160080160006101000a81548160ff0219169083600481111561055457610553611601565b5b021790555060008160080160016101000a81548160ff0219169083600181111561058157610580611601565b5b0217905550338160080160026101000a81548173ffffffffffffffffffffffffffffffffffffffff021916908373ffffffffffffffffffffffffffffffffffffffff1602179055508193505050509695505050505050565b803373ffffffffffffffffffffffffffffffffffffffff166001600083815260200190815260200160002060080160029054906101000a900473ffffffffffffffffffffffffffffffffffffffff1673ffffffffffffffffffffffffffffffffffffffff16141561067f576040517f08c379a0000000000000000000000000000000000000000000000000000000008152600401610676906112cf565b60405180910390fd5b60006004600084815260200190815260200160002060003373ffffffffffffffffffffffffffffffffffffffff1673ffffffffffffffffffffffffffffffffffffffff168152602001908152602001600020549050600060016000858152602001908152602001600020600901549050600082141561076d5760036000858152602001908152602001600020339080600181540180825580915050600190039060005260206000200160009091909190916101000a81548173ffffffffffffffffffffffffffffffffffffffff021916908373ffffffffffffffffffffffffffffffffffffffff1602179055505b6107803483610d5790919063ffffffff16565b9150816004600086815260200190815260200160002060003373ffffffffffffffffffffffffffffffffffffffff1673ffffffffffffffffffffffffffffffffffffffff168152602001908152602001600020819055506107ea3482610d5790919063ffffffff16565b90508060016000868152602001908152602001600020600901819055507f8f69cdbf98ee86b54b16f9e7b2be9ea148d215d045e1083da4c6048ad7f96c178433348460405161083c9493929190611381565b60405180910390a161084d84610d6d565b50505050565b60003373ffffffffffffffffffffffffffffffffffffffff16600260009054906101000a900473ffffffffffffffffffffffffffffffffffffffff1673ffffffffffffffffffffffffffffffffffffffff16146108e5576040517f08c379a00000000000000000000000000000000000000000000000000000000081526004016108dc9061126f565b60405180910390fd5b60006001600084815260200190815260200160002060080160029054906101000a900473ffffffffffffffffffffffffffffffffffffffff1690506000600160008581526020019081526020016000206009015490506000600160008681526020019081526020016000206003015490506001600481111561096a57610969611601565b5b6001600087815260200190815260200160002060080160009054906101000a900460ff1660048111156109a05761099f611601565b5b146109e0576040517f08c379a00000000000000000000000000000000000000000000000000000000081526004016109d79061130f565b60405180910390fd5b60008211610a23576040517f08c379a0000000000000000000000000000000000000000000000000000000008152600401610a1a906112ef565b60405180910390fd5b80821015610a66576040517f08c379a0000000000000000000000000000000000000000000000000000000008152600401610a5d9061128f565b60405180910390fd5b8273ffffffffffffffffffffffffffffffffffffffff166108fc839081150290604051600060405180830381858888f19350505050158015610aac573d6000803e3d6000fd5b507fde2b282ef7cbd9542271a8413f90f3184c7756d7285c47c55b7ce578cd07cd69853384604051610ae09392919061134a565b60405180910390a16000600160008781526020019081526020016000206009018190555060026001600087815260200190815260200160002060080160006101000a81548160ff02191690836004811115610b3e57610b3d611601565b5b0217905550600180600087815260200190815260200160002060080160016101000a81548160ff02191690836001811115610b7c57610b7b611601565b5b021790555060019350505050919050565b6060806000806000806000806000806000600160008d81526020019081526020016000209050806001018160020182600301548360040154846005015485600601548660080160009054906101000a900460ff168760080160019054906101000a900460ff168860080160029054906101000a900473ffffffffffffffffffffffffffffffffffffffff168960090154898054610c2990611557565b80601f0160208091040260200160405190810160405280929190818152602001828054610c5590611557565b8015610ca25780601f10610c7757610100808354040283529160200191610ca2565b820191906000526020600020905b815481529060010190602001808311610c8557829003601f168201915b50505050509950888054610cb590611557565b80601f0160208091040260200160405190810160405280929190818152602001828054610ce190611557565b8015610d2e5780601f10610d0357610100808354040283529160200191610d2e565b820191906000526020600020905b815481529060010190602001808311610d1157829003601f168201915b505050505098509a509a509a509a509a509a509a509a509a509a50509193959799509193959799565b60008183610d6591906113e2565b905092915050565b600060016000838152602001908152602001600020600901549050600060016000848152602001908152602001600020600301549050600060016000858152602001908152602001600020600601549050818310610e2357600180600086815260200190815260200160002060080160006101000a81548160ff02191690836004811115610dfe57610dfd611601565b5b0217905550426001600086815260200190815260200160002060070181905550610e6c565b80421115610e6b5760036001600086815260200190815260200160002060080160006101000a81548160ff02191690836004811115610e6557610e64611601565b5b02179055505b5b50505050565b828054610e7e90611557565b90600052602060002090601f016020900481019282610ea05760008555610ee7565b82601f10610eb957803560ff1916838001178555610ee7565b82800160010185558215610ee7579182015b82811115610ee6578235825591602001919060010190610ecb565b5b509050610ef49190610ef8565b5090565b5b80821115610f11576000816000905550600101610ef9565b5090565b60008083601f840112610f2b57610f2a611693565b5b8235905067ffffffffffffffff811115610f4857610f4761168e565b5b602083019150836001820283011115610f6457610f63611698565b5b9250929050565b600081359050610f7a81611894565b92915050565b60008060008060008060808789031215610f9d57610f9c6116a2565b5b600087013567ffffffffffffffff811115610fbb57610fba61169d565b5b610fc789828a01610f15565b9650965050602087013567ffffffffffffffff811115610fea57610fe961169d565b5b610ff689828a01610f15565b9450945050604061100989828a01610f6b565b925050606061101a89828a01610f6b565b9150509295509295509295565b60006020828403121561103d5761103c6116a2565b5b600061104b84828501610f6b565b91505092915050565b61105d81611492565b82525050565b61106c816114a4565b82525050565b61107b81611500565b82525050565b61108a81611512565b82525050565b600061109b826113c6565b6110a581856113d1565b93506110b5818560208601611524565b6110be816116a7565b840191505092915050565b60006110d6600d836113d1565b91506110e1826116b8565b602082019050919050565b60006110f96031836113d1565b9150611104826116e1565b604082019050919050565b600061111c602c836113d1565b915061112782611730565b604082019050919050565b600061113f6024836113d1565b915061114a8261177f565b604082019050919050565b60006111626022836113d1565b915061116d826117ce565b604082019050919050565b6000611185602c836113d1565b91506111908261181d565b604082019050919050565b6111a4816114f6565b82525050565b60006020820190506111bf6000830184611063565b92915050565b60006101408201905081810360008301526111e0818d611090565b905081810360208301526111f4818c611090565b9050611203604083018b61119b565b611210606083018a61119b565b61121d608083018961119b565b61122a60a083018861119b565b61123760c0830187611072565b61124460e0830186611081565b611252610100830185611054565b61126061012083018461119b565b9b9a5050505050505050505050565b60006020820190508181036000830152611288816110c9565b9050919050565b600060208201905081810360008301526112a8816110ec565b9050919050565b600060208201905081810360008301526112c88161110f565b9050919050565b600060208201905081810360008301526112e881611132565b9050919050565b6000602082019050818103600083015261130881611155565b9050919050565b6000602082019050818103600083015261132881611178565b9050919050565b6000602082019050611344600083018461119b565b92915050565b600060608201905061135f600083018661119b565b61136c6020830185611054565b611379604083018461119b565b949350505050565b6000608082019050611396600083018761119b565b6113a36020830186611054565b6113b0604083018561119b565b6113bd606083018461119b565b95945050505050565b600081519050919050565b600082825260208201905092915050565b60006113ed826114f6565b91506113f8836114f6565b9250827fffffffffffffffffffffffffffffffffffffffffffffffffffffffffffffffff0382111561142d5761142c6115d2565b5b828201905092915050565b6000611443826114f6565b915061144e836114f6565b9250817fffffffffffffffffffffffffffffffffffffffffffffffffffffffffffffffff0483118215151615611487576114866115d2565b5b828202905092915050565b600061149d826114d6565b9050919050565b60008115159050919050565b60008190506114be8261186c565b919050565b60008190506114d182611880565b919050565b600073ffffffffffffffffffffffffffffffffffffffff82169050919050565b6000819050919050565b600061150b826114b0565b9050919050565b600061151d826114c3565b9050919050565b60005b83811015611542578082015181840152602081019050611527565b83811115611551576000848401525b50505050565b6000600282049050600182168061156f57607f821691505b6020821081141561158357611582611630565b5b50919050565b6000611594826114f6565b91507fffffffffffffffffffffffffffffffffffffffffffffffffffffffffffffffff8214156115c7576115c66115d2565b5b600182019050919050565b7f4e487b7100000000000000000000000000000000000000000000000000000000600052601160045260246000fd5b7f4e487b7100000000000000000000000000000000000000000000000000000000600052602160045260246000fd5b7f4e487b7100000000000000000000000000000000000000000000000000000000600052602260045260246000fd5b7f4e487b7100000000000000000000000000000000000000000000000000000000600052603260045260246000fd5b600080fd5b600080fd5b600080fd5b600080fd5b600080fd5b6000601f19601f8301169050919050565b7f4163636573732044656e69656400000000000000000000000000000000000000600082015250565b7f556e61626c6520746f207061796f7574206e6f772e2046756e64206e6f74207260008201527f6561636865642074686520746172676574000000000000000000000000000000602082015250565b7f556e61626c6520746f20726566756e64206e6f772e20496e76616c696420667560008201527f6e64696e67207374617475730000000000000000000000000000000000000000602082015250565b7f5468652070726f6a656374206f776e65722063616e206e6f7420636f6e74726960008201527f6275746500000000000000000000000000000000000000000000000000000000602082015250565b7f556e61626c6520746f207061796f7574206e6f772e20496e76616c696420667560008201527f6e64000000000000000000000000000000000000000000000000000000000000602082015250565b7f556e61626c6520746f207061796f7574206e6f772e20496e76616c696420667560008201527f6e64696e67207374617475730000000000000000000000000000000000000000602082015250565b6005811061187d5761187c611601565b5b50565b6002811061189157611890611601565b5b50565b61189d816114f6565b81146118a857600080fd5b5056fea26469706673582212204120b2f405029ff3e7091ac537bcf1b378e8eb4cfa03c0e8a7a83bdcb0298b1464736f6c63430008070033",
  "immutableReferences": {},
  "source": "// SPDX-License-Identifier: MIT\npragma solidity >=0.6.0 <0.9.0;\n\nimport \"./library/SafeMath.sol\";\nimport \"./library/SafeMath8.sol\";\nimport \"./library/SafeMath16.sol\";\nimport \"./Project.sol\";\n\ncontract Crowdfunding is Project {\n\n    using SafeMath for uint256;\n\n    address payable contractAdmin;\n\n    //Contributions\n    mapping (uint => address[]) private contributors;\n    mapping (uint => mapping(address => uint256)) private contributions;\n\n    //Modifiers\n    modifier onlyAdmin() {\n        require(contractAdmin == msg.sender,\"Access Denied\");\n        _;\n    }\n\n    modifier notOwner(uint projectID) {\n        require(projects[projectID].owner != msg.sender,\"The project owner can not contribute\");\n        _;\n    }\n\n    //Events\n    event fundReceived(uint256 projectID, address contributor, uint256 amount, uint256 currentBalance);\n    event ownerPaid(uint256 projectID, address owner, uint256 currentBalance);\n\n    constructor() {\n        //Defaults\n        contractAdmin = payable(msg.sender);     \n    }\n\n    //Contribute to projects \n    function contribute(uint256 projectID) external payable notOwner(projectID) {\n        uint256 _contributionBalance = contributions[projectID][msg.sender];\n        uint256 _currentBalance = projects[projectID].currentBalance;\n\n        if(_contributionBalance == 0) {\n            contributors[projectID].push(msg.sender);\n        }\n\n        _contributionBalance = _contributionBalance.add(msg.value);\n        contributions[projectID][msg.sender] = _contributionBalance;\n\n        _currentBalance = _currentBalance.add(msg.value);\n        projects[projectID].currentBalance = _currentBalance;\n\n        emit fundReceived(projectID, msg.sender, msg.value, _currentBalance);\n        checkProjectFundingStatus(projectID);\n    }\n\n    //Check funding status\n    function checkProjectFundingStatus(uint256 projectID) private {\n        uint256 _currentBalance = projects[projectID].currentBalance;\n        uint256 _targetAmount = projects[projectID].targetAmount;\n        uint256 _endingTimestamp = projects[projectID].endingTimestamp;\n\n        if(_currentBalance >= _targetAmount) {\n            projects[projectID].fundingStatus = fStatus.Completed;\n            projects[projectID].completedTimestamp = block.timestamp;\n        } else if (block.timestamp > _endingTimestamp) {\n            projects[projectID].fundingStatus = fStatus.Expired;\n        }\n    }\n\n    //Pay/release funds to project owner\n    function payout(uint256 projectID) external onlyAdmin() payable returns(bool) {\n        address payable _projectOwner = payable(projects[projectID].owner);\n        uint256 _currentBalance = projects[projectID].currentBalance;\n        uint256 _targetAmount = projects[projectID].targetAmount;\n\n        require(projects[projectID].fundingStatus == fStatus.Completed,\"Unable to payout now. Invalid funding status\");\n        require(_currentBalance > 0,\"Unable to payout now. Invalid fund\");\n        require(_currentBalance >= _targetAmount,\"Unable to payout now. Fund not reached the target\");\n                \n        _projectOwner.transfer(_currentBalance);        \n        emit ownerPaid(projectID,msg.sender,_currentBalance);\n\n        projects[projectID].currentBalance = 0;\n        projects[projectID].fundingStatus = fStatus.Paid;\n        projects[projectID].projectStatus = pStatus.Closed;\n\n        return true;\n    }\n\n    //Refund to the contributors if fund not reached goal and expired\n    function refund(uint256 projectID) external onlyAdmin() payable returns(bool) {\n\n        require(projects[projectID].fundingStatus == fStatus.Expired, \"Unable to refund now. Invalid funding status\");\n\n        uint256 _contributorsLength = contributors[projectID].length;\n\n        for(uint256 i=0; i<_contributorsLength; i++ ) {\n            address payable _contributor = payable(contributors[projectID][i]);\n            uint256 _contribution = contributions[projectID][address(contributors[projectID][i])];\n            _contributor.transfer(_contribution);\n        }\n\n        projects[projectID].currentBalance = 0;\n        projects[projectID].fundingStatus = fStatus.Refunded;\n        projects[projectID].projectStatus = pStatus.Closed;\n\n        return true;\n    }\n}",
  "sourcePath": "/var/www/html/blaze-coin/crowdfunding-simple/contracts/Crowdfunding.sol",
  "compiler": {
    "name": "solc",
    "version": "0.8.7+commit.e28d00a7.Emscripten.clang"
  },
  "schemaVersion": "3.4.1",
  "updatedAt": "2021-08-18T05:50:48.700Z",
  "networkType": "ethereum",
  "devdoc": {
    "kind": "dev",
    "methods": {},
    "version": 1
  },
  "userdoc": {
    "kind": "user",
    "methods": {},
    "version": 1
  }
}