{
  "contractName": "Project",
  "abi": [
    {
      "inputs": [
        {
          "internalType": "string",
          "name": "_title",
          "type": "string"
        },
        {
          "internalType": "string",
          "name": "_description",
          "type": "string"
        },
        {
          "internalType": "uint256",
          "name": "_targetAmount",
          "type": "uint256"
        },
        {
          "internalType": "uint256",
          "name": "_deadlineInDays",
          "type": "uint256"
        }
      ],
      "name": "createProject",
      "outputs": [
        {
          "internalType": "uint256",
          "name": "projectID",
          "type": "uint256"
        }
      ],
      "stateMutability": "nonpayable",
      "type": "function"
    },
    {
      "inputs": [
        {
          "internalType": "uint256",
          "name": "projectID",
          "type": "uint256"
        }
      ],
      "name": "getProject",
      "outputs": [
        {
          "internalType": "string",
          "name": "title",
          "type": "string"
        },
        {
          "internalType": "string",
          "name": "description",
          "type": "string"
        },
        {
          "internalType": "uint256",
          "name": "targetAmount",
          "type": "uint256"
        },
        {
          "internalType": "uint256",
          "name": "deadlineInDays",
          "type": "uint256"
        },
        {
          "internalType": "uint256",
          "name": "startingTimestamp",
          "type": "uint256"
        },
        {
          "internalType": "uint256",
          "name": "endingTimestamp",
          "type": "uint256"
        },
        {
          "internalType": "enum Project.fStatus",
          "name": "fundingStatus",
          "type": "uint8"
        },
        {
          "internalType": "enum Project.pStatus",
          "name": "projectStatus",
          "type": "uint8"
        },
        {
          "internalType": "address",
          "name": "owner",
          "type": "address"
        },
        {
          "internalType": "uint256",
          "name": "currentBalance",
          "type": "uint256"
        }
      ],
      "stateMutability": "view",
      "type": "function"
    }
  ],
  "bytecode": "0x608060405234801561001057600080fd5b506109d4806100206000396000f3fe608060405234801561001057600080fd5b50600436106100365760003560e01c806394ba97091461003b578063f0f3f2c81461006b575b600080fd5b610055600480360381019061005091906104e3565b6100a4565b60405161006291906106d6565b60405180910390f35b6100856004803603810190610080919061058a565b6101f5565b60405161009b9a9998979695949392919061062c565b60405180910390f35b6000804290506100c060016000546103bf90919063ffffffff16565b600081905550600080549050600060016000838152602001908152602001600020905089898260010191906100f69291906103d5565b50878782600201919061010a9291906103d5565b5085816003018190555084816004018190555082816005018190555062015180856101359190610763565b83610140919061070d565b816006018190555060008160080160006101000a81548160ff021916908360048111156101705761016f6108d7565b5b021790555060008160080160016101000a81548160ff0219169083600181111561019d5761019c6108d7565b5b0217905550338160080160026101000a81548173ffffffffffffffffffffffffffffffffffffffff021916908373ffffffffffffffffffffffffffffffffffffffff1602179055508193505050509695505050505050565b6060806000806000806000806000806000600160008d81526020019081526020016000209050806001018160020182600301548360040154846005015485600601548660080160009054906101000a900460ff168760080160019054906101000a900460ff168860080160029054906101000a900473ffffffffffffffffffffffffffffffffffffffff16896009015489805461029190610876565b80601f01602080910402602001604051908101604052809291908181526020018280546102bd90610876565b801561030a5780601f106102df5761010080835404028352916020019161030a565b820191906000526020600020905b8154815290600101906020018083116102ed57829003601f168201915b5050505050995088805461031d90610876565b80601f016020809104026020016040519081016040528092919081815260200182805461034990610876565b80156103965780601f1061036b57610100808354040283529160200191610396565b820191906000526020600020905b81548152906001019060200180831161037957829003601f168201915b505050505098509a509a509a509a509a509a509a509a509a509a50509193959799509193959799565b600081836103cd919061070d565b905092915050565b8280546103e190610876565b90600052602060002090601f016020900481019282610403576000855561044a565b82601f1061041c57803560ff191683800117855561044a565b8280016001018555821561044a579182015b8281111561044957823582559160200191906001019061042e565b5b509050610457919061045b565b5090565b5b8082111561047457600081600090555060010161045c565b5090565b60008083601f84011261048e5761048d61093a565b5b8235905067ffffffffffffffff8111156104ab576104aa610935565b5b6020830191508360018202830111156104c7576104c661093f565b5b9250929050565b6000813590506104dd81610987565b92915050565b60008060008060008060808789031215610500576104ff610949565b5b600087013567ffffffffffffffff81111561051e5761051d610944565b5b61052a89828a01610478565b9650965050602087013567ffffffffffffffff81111561054d5761054c610944565b5b61055989828a01610478565b9450945050604061056c89828a016104ce565b925050606061057d89828a016104ce565b9150509295509295509295565b6000602082840312156105a05761059f610949565b5b60006105ae848285016104ce565b91505092915050565b6105c0816107bd565b82525050565b6105cf8161081f565b82525050565b6105de81610831565b82525050565b60006105ef826106f1565b6105f981856106fc565b9350610609818560208601610843565b6106128161094e565b840191505092915050565b61062681610815565b82525050565b6000610140820190508181036000830152610647818d6105e4565b9050818103602083015261065b818c6105e4565b905061066a604083018b61061d565b610677606083018a61061d565b610684608083018961061d565b61069160a083018861061d565b61069e60c08301876105c6565b6106ab60e08301866105d5565b6106b96101008301856105b7565b6106c761012083018461061d565b9b9a5050505050505050505050565b60006020820190506106eb600083018461061d565b92915050565b600081519050919050565b600082825260208201905092915050565b600061071882610815565b915061072383610815565b9250827fffffffffffffffffffffffffffffffffffffffffffffffffffffffffffffffff03821115610758576107576108a8565b5b828201905092915050565b600061076e82610815565b915061077983610815565b9250817fffffffffffffffffffffffffffffffffffffffffffffffffffffffffffffffff04831182151516156107b2576107b16108a8565b5b828202905092915050565b60006107c8826107f5565b9050919050565b60008190506107dd8261095f565b919050565b60008190506107f082610973565b919050565b600073ffffffffffffffffffffffffffffffffffffffff82169050919050565b6000819050919050565b600061082a826107cf565b9050919050565b600061083c826107e2565b9050919050565b60005b83811015610861578082015181840152602081019050610846565b83811115610870576000848401525b50505050565b6000600282049050600182168061088e57607f821691505b602082108114156108a2576108a1610906565b5b50919050565b7f4e487b7100000000000000000000000000000000000000000000000000000000600052601160045260246000fd5b7f4e487b7100000000000000000000000000000000000000000000000000000000600052602160045260246000fd5b7f4e487b7100000000000000000000000000000000000000000000000000000000600052602260045260246000fd5b600080fd5b600080fd5b600080fd5b600080fd5b600080fd5b6000601f19601f8301169050919050565b600581106109705761096f6108d7565b5b50565b60028110610984576109836108d7565b5b50565b61099081610815565b811461099b57600080fd5b5056fea2646970667358221220725561e80a71dfe50616c21d651fd55f3c31d4e57306839fbcc5091bffc4caa564736f6c63430008070033",
  "immutableReferences": {},
  "source": "// SPDX-License-Identifier: MIT\npragma solidity >=0.6.0 <0.9.0;\n\nimport \"./library/SafeMath.sol\";\nimport \"./library/SafeMath8.sol\";\nimport \"./library/SafeMath16.sol\";\n\ncontract Project {\n\n    using SafeMath for uint256;\n    \n    enum fStatus {\n        Inprogress,\n        Completed,        \n        Paid,\n        Expired,\n        Refunded\n    }\n\n    enum pStatus {\n        Open,\n        Closed\n    }\n    \n    //Project Information\n    struct projectInfo {\n        uint256 projectID;\n        string title;\n        string description;\n        uint256 targetAmount;\n        uint256 deadlineInDays;\n        uint256 startingTimestamp;\n        uint256 endingTimestamp;\n        uint256 completedTimestamp;        \n        fStatus fundingStatus;\n        pStatus projectStatus;\n        address owner;\n        uint256 currentBalance;        \n    }\n    uint256 numOfProjects;\n\n    //Projects\n    mapping (uint256 => projectInfo) internal projects;\n\n    //Create Project\n    function createProject(\n        string calldata _title, \n        string calldata _description, \n        uint256 _targetAmount, \n        uint256 _deadlineInDays\n    ) external returns (uint256 projectID) {\n\n        uint256 _startingTimestamp = block.timestamp;\n        numOfProjects = numOfProjects.add(1);\n        uint256 _projectID = numOfProjects;\n\n        projectInfo storage project = projects[_projectID];\n        project.title = _title;\n        project.description = _description;\n        project.targetAmount = _targetAmount;\n        project.deadlineInDays = _deadlineInDays;\n        project.startingTimestamp = _startingTimestamp;\n        project.endingTimestamp = _startingTimestamp + _deadlineInDays * 1 days;\n        project.fundingStatus = fStatus.Inprogress;\n        project.projectStatus = pStatus.Open;\n        project.owner = msg.sender;\n\n        return _projectID;\n    }\n\n    //Get Project\n    function getProject(uint256 projectID) public view returns (\n        string memory title,\n        string memory description,\n        uint256 targetAmount,\n        uint256 deadlineInDays,\n        uint256 startingTimestamp,\n        uint256 endingTimestamp,\n        fStatus fundingStatus,\n        pStatus projectStatus,\n        address owner,\n        uint256 currentBalance        \n    ) {\n\n        projectInfo storage project = projects[projectID];\n\n        return (\n            project.title,\n            project.description,\n            project.targetAmount,\n            project.deadlineInDays,\n            project.startingTimestamp,\n            project.endingTimestamp,\n            project.fundingStatus,\n            project.projectStatus,\n            project.owner,\n            project.currentBalance            \n        );\n    }\n}",
  "sourcePath": "/var/www/html/blaze-coin/crowdfunding-simple/contracts/Project.sol",
  "compiler": {
    "name": "solc",
    "version": "0.8.7+commit.e28d00a7.Emscripten.clang"
  },
  "schemaVersion": "3.4.1",
  "updatedAt": "2021-08-17T17:04:40.630Z",
  "devdoc": {
    "kind": "dev",
    "methods": {},
    "version": 1
  },
  "userdoc": {
    "kind": "user",
    "methods": {},
    "version": 1
  }
}